{
  "contractName": "LotteryNFT",
  "abi": [
    {
      "anonymous": false,
      "inputs": [
        {
          "indexed": true,
          "internalType": "address",
          "name": "owner",
          "type": "address"
        },
        {
          "indexed": true,
          "internalType": "address",
          "name": "approved",
          "type": "address"
        },
        {
          "indexed": true,
          "internalType": "uint256",
          "name": "tokenId",
          "type": "uint256"
        }
      ],
      "name": "Approval",
      "type": "event"
    },
    {
      "anonymous": false,
      "inputs": [
        {
          "indexed": true,
          "internalType": "address",
          "name": "owner",
          "type": "address"
        },
        {
          "indexed": true,
          "internalType": "address",
          "name": "operator",
          "type": "address"
        },
        {
          "indexed": false,
          "internalType": "bool",
          "name": "approved",
          "type": "bool"
        }
      ],
      "name": "ApprovalForAll",
      "type": "event"
    },
    {
      "anonymous": false,
      "inputs": [
        {
          "indexed": true,
          "internalType": "address",
          "name": "from",
          "type": "address"
        },
        {
          "indexed": true,
          "internalType": "address",
          "name": "to",
          "type": "address"
        },
        {
          "indexed": true,
          "internalType": "uint256",
          "name": "tokenId",
          "type": "uint256"
        }
      ],
      "name": "Transfer",
      "type": "event"
    },
    {
      "inputs": [
        {
          "internalType": "address",
          "name": "to",
          "type": "address"
        },
        {
          "internalType": "uint256",
          "name": "tokenId",
          "type": "uint256"
        }
      ],
      "name": "approve",
      "outputs": [],
      "stateMutability": "nonpayable",
      "type": "function"
    },
    {
      "inputs": [
        {
          "internalType": "address",
          "name": "owner",
          "type": "address"
        }
      ],
      "name": "balanceOf",
      "outputs": [
        {
          "internalType": "uint256",
          "name": "",
          "type": "uint256"
        }
      ],
      "stateMutability": "view",
      "type": "function",
      "constant": true
    },
    {
      "inputs": [],
      "name": "baseURI",
      "outputs": [
        {
          "internalType": "string",
          "name": "",
          "type": "string"
        }
      ],
      "stateMutability": "view",
      "type": "function",
      "constant": true
    },
    {
      "inputs": [
        {
          "internalType": "uint256",
          "name": "tokenId",
          "type": "uint256"
        }
      ],
      "name": "getApproved",
      "outputs": [
        {
          "internalType": "address",
          "name": "",
          "type": "address"
        }
      ],
      "stateMutability": "view",
      "type": "function",
      "constant": true
    },
    {
      "inputs": [
        {
          "internalType": "address",
          "name": "owner",
          "type": "address"
        },
        {
          "internalType": "address",
          "name": "operator",
          "type": "address"
        }
      ],
      "name": "isApprovedForAll",
      "outputs": [
        {
          "internalType": "bool",
          "name": "",
          "type": "bool"
        }
      ],
      "stateMutability": "view",
      "type": "function",
      "constant": true
    },
    {
      "inputs": [],
      "name": "name",
      "outputs": [
        {
          "internalType": "string",
          "name": "",
          "type": "string"
        }
      ],
      "stateMutability": "view",
      "type": "function",
      "constant": true
    },
    {
      "inputs": [
        {
          "internalType": "uint256",
          "name": "tokenId",
          "type": "uint256"
        }
      ],
      "name": "ownerOf",
      "outputs": [
        {
          "internalType": "address",
          "name": "",
          "type": "address"
        }
      ],
      "stateMutability": "view",
      "type": "function",
      "constant": true
    },
    {
      "inputs": [
        {
          "internalType": "address",
          "name": "from",
          "type": "address"
        },
        {
          "internalType": "address",
          "name": "to",
          "type": "address"
        },
        {
          "internalType": "uint256",
          "name": "tokenId",
          "type": "uint256"
        }
      ],
      "name": "safeTransferFrom",
      "outputs": [],
      "stateMutability": "nonpayable",
      "type": "function"
    },
    {
      "inputs": [
        {
          "internalType": "address",
          "name": "from",
          "type": "address"
        },
        {
          "internalType": "address",
          "name": "to",
          "type": "address"
        },
        {
          "internalType": "uint256",
          "name": "tokenId",
          "type": "uint256"
        },
        {
          "internalType": "bytes",
          "name": "_data",
          "type": "bytes"
        }
      ],
      "name": "safeTransferFrom",
      "outputs": [],
      "stateMutability": "nonpayable",
      "type": "function"
    },
    {
      "inputs": [
        {
          "internalType": "address",
          "name": "operator",
          "type": "address"
        },
        {
          "internalType": "bool",
          "name": "approved",
          "type": "bool"
        }
      ],
      "name": "setApprovalForAll",
      "outputs": [],
      "stateMutability": "nonpayable",
      "type": "function"
    },
    {
      "inputs": [
        {
          "internalType": "bytes4",
          "name": "interfaceId",
          "type": "bytes4"
        }
      ],
      "name": "supportsInterface",
      "outputs": [
        {
          "internalType": "bool",
          "name": "",
          "type": "bool"
        }
      ],
      "stateMutability": "view",
      "type": "function",
      "constant": true
    },
    {
      "inputs": [],
      "name": "symbol",
      "outputs": [
        {
          "internalType": "string",
          "name": "",
          "type": "string"
        }
      ],
      "stateMutability": "view",
      "type": "function",
      "constant": true
    },
    {
      "inputs": [
        {
          "internalType": "uint256",
          "name": "",
          "type": "uint256"
        }
      ],
      "name": "ticketsLottery",
      "outputs": [
        {
          "internalType": "uint256",
          "name": "id",
          "type": "uint256"
        },
        {
          "internalType": "uint256",
          "name": "price",
          "type": "uint256"
        },
        {
          "internalType": "string",
          "name": "date",
          "type": "string"
        },
        {
          "internalType": "enum LotteryNFT.ticketStatus",
          "name": "status",
          "type": "uint8"
        },
        {
          "internalType": "address payable",
          "name": "manager",
          "type": "address"
        },
        {
          "internalType": "address payable",
          "name": "owner",
          "type": "address"
        }
      ],
      "stateMutability": "view",
      "type": "function",
      "constant": true
    },
    {
      "inputs": [
        {
          "internalType": "uint256",
          "name": "index",
          "type": "uint256"
        }
      ],
      "name": "tokenByIndex",
      "outputs": [
        {
          "internalType": "uint256",
          "name": "",
          "type": "uint256"
        }
      ],
      "stateMutability": "view",
      "type": "function",
      "constant": true
    },
    {
      "inputs": [
        {
          "internalType": "address",
          "name": "owner",
          "type": "address"
        },
        {
          "internalType": "uint256",
          "name": "index",
          "type": "uint256"
        }
      ],
      "name": "tokenOfOwnerByIndex",
      "outputs": [
        {
          "internalType": "uint256",
          "name": "",
          "type": "uint256"
        }
      ],
      "stateMutability": "view",
      "type": "function",
      "constant": true
    },
    {
      "inputs": [
        {
          "internalType": "uint256",
          "name": "tokenId",
          "type": "uint256"
        }
      ],
      "name": "tokenURI",
      "outputs": [
        {
          "internalType": "string",
          "name": "",
          "type": "string"
        }
      ],
      "stateMutability": "view",
      "type": "function",
      "constant": true
    },
    {
      "inputs": [
        {
          "internalType": "uint256",
          "name": "",
          "type": "uint256"
        }
      ],
      "name": "tokens",
      "outputs": [
        {
          "internalType": "uint256",
          "name": "id",
          "type": "uint256"
        },
        {
          "internalType": "uint256",
          "name": "price",
          "type": "uint256"
        },
        {
          "internalType": "string",
          "name": "date",
          "type": "string"
        },
        {
          "internalType": "enum LotteryNFT.ticketStatus",
          "name": "status",
          "type": "uint8"
        },
        {
          "internalType": "address payable",
          "name": "manager",
          "type": "address"
        },
        {
          "internalType": "address payable",
          "name": "owner",
          "type": "address"
        }
      ],
      "stateMutability": "view",
      "type": "function",
      "constant": true
    },
    {
      "inputs": [],
      "name": "totalSupply",
      "outputs": [
        {
          "internalType": "uint256",
          "name": "",
          "type": "uint256"
        }
      ],
      "stateMutability": "view",
      "type": "function",
      "constant": true
    },
    {
      "inputs": [
        {
          "internalType": "address",
          "name": "from",
          "type": "address"
        },
        {
          "internalType": "address",
          "name": "to",
          "type": "address"
        },
        {
          "internalType": "uint256",
          "name": "tokenId",
          "type": "uint256"
        }
      ],
      "name": "transferFrom",
      "outputs": [],
      "stateMutability": "nonpayable",
      "type": "function"
    },
    {
      "inputs": [
        {
          "internalType": "uint256",
          "name": "_price",
          "type": "uint256"
        },
        {
          "internalType": "string",
          "name": "_date",
          "type": "string"
        }
      ],
      "name": "createTicketLottery",
      "outputs": [],
      "stateMutability": "nonpayable",
      "type": "function"
    },
    {
      "inputs": [
        {
          "internalType": "address",
          "name": "_attendee",
          "type": "address"
        },
        {
          "internalType": "uint256",
          "name": "_tokenId",
          "type": "uint256"
        }
      ],
      "name": "approveTransferToken",
      "outputs": [],
      "stateMutability": "nonpayable",
      "type": "function"
    },
    {
      "inputs": [
        {
          "internalType": "address",
          "name": "_attendee",
          "type": "address"
        }
      ],
      "name": "approvalForAll",
      "outputs": [],
      "stateMutability": "nonpayable",
      "type": "function"
    },
    {
      "inputs": [
        {
          "internalType": "address",
          "name": "_attendee",
          "type": "address"
        }
      ],
      "name": "validateIsApprovedForAll",
      "outputs": [
        {
          "internalType": "bool",
          "name": "",
          "type": "bool"
        }
      ],
      "stateMutability": "nonpayable",
      "type": "function"
    },
    {
      "inputs": [
        {
          "internalType": "uint256",
          "name": "_tokenId",
          "type": "uint256"
        }
      ],
      "name": "buyTicketLottery",
      "outputs": [],
      "stateMutability": "payable",
      "type": "function",
      "payable": true
    },
    {
      "inputs": [],
      "name": "pickWinner",
      "outputs": [
        {
          "internalType": "address",
          "name": "",
          "type": "address"
        },
        {
          "internalType": "uint256",
          "name": "",
          "type": "uint256"
        }
      ],
      "stateMutability": "view",
      "type": "function",
      "constant": true
    }
  ],
  "bytecode": "0x60806040526000600a553480156200001657600080fd5b506040518060400160405280600a81526020017f4c6f74746572794e4746000000000000000000000000000000000000000000008152506040518060400160405280600481526020017f4c4e4654000000000000000000000000000000000000000000000000000000008152506200009b6301ffc9a760e01b6200011d60201b60201c565b8160069080519060200190620000b392919062000226565b508060079080519060200190620000cc92919062000226565b50620000e56380ac58cd60e01b6200011d60201b60201c565b620000fd635b5e139f60e01b6200011d60201b60201c565b6200011563780e9d6360e01b6200011d60201b60201c565b5050620002cc565b63ffffffff60e01b817bffffffffffffffffffffffffffffffffffffffffffffffffffffffff19161415620001ba576040517f08c379a000000000000000000000000000000000000000000000000000000000815260040180806020018281038252601c8152602001807f4552433136353a20696e76616c696420696e746572666163652069640000000081525060200191505060405180910390fd5b6001600080837bffffffffffffffffffffffffffffffffffffffffffffffffffffffff19167bffffffffffffffffffffffffffffffffffffffffffffffffffffffff1916815260200190815260200160002060006101000a81548160ff02191690831515021790555050565b828054600181600116156101000203166002900490600052602060002090601f016020900481019282601f106200026957805160ff19168380011785556200029a565b828001600101855582156200029a579182015b82811115620002995782518255916020019190600101906200027c565b5b509050620002a99190620002ad565b5090565b5b80821115620002c8576000816000905550600101620002ae565b5090565b61433180620002dc6000396000f3fe6080604052600436106101665760003560e01c80635d495aea116100d157806395d89b411161008a578063b88d4fde11610064578063b88d4fde14610aba578063c87b56dd14610bcc578063e985e9c514610c80578063ea726ee714610d0757610166565b806395d89b411461099f5780639ab065c114610a2f578063a22cb46514610a5d57610166565b80635d495aea146106da5780636352211e146107225780636c0360eb1461078757806370a0823114610817578063868e29251461087c5780638e76fd36146108cd57610166565b806324a52dc01161012357806324a52dc0146103d15780632f745c591461043857806342842e0e146104a75780634f64b2be146105225780634f6ccce7146106305780635211cd731461067f57610166565b806301ffc9a71461016b57806306fdde03146101db578063081812fc1461026b578063095ea7b3146102d057806318160ddd1461032b57806323b872dd14610356575b600080fd5b34801561017757600080fd5b506101c36004803603602081101561018e57600080fd5b8101908080357bffffffffffffffffffffffffffffffffffffffffffffffffffffffff19169060200190929190505050610e15565b60405180821515815260200191505060405180910390f35b3480156101e757600080fd5b506101f0610e7c565b6040518080602001828103825283818151815260200191508051906020019080838360005b83811015610230578082015181840152602081019050610215565b50505050905090810190601f16801561025d5780820380516001836020036101000a031916815260200191505b509250505060405180910390f35b34801561027757600080fd5b506102a46004803603602081101561028e57600080fd5b8101908080359060200190929190505050610f1e565b604051808273ffffffffffffffffffffffffffffffffffffffff16815260200191505060405180910390f35b3480156102dc57600080fd5b50610329600480360360408110156102f357600080fd5b81019080803573ffffffffffffffffffffffffffffffffffffffff16906020019092919080359060200190929190505050610fb9565b005b34801561033757600080fd5b506103406110fd565b6040518082815260200191505060405180910390f35b34801561036257600080fd5b506103cf6004803603606081101561037957600080fd5b81019080803573ffffffffffffffffffffffffffffffffffffffff169060200190929190803573ffffffffffffffffffffffffffffffffffffffff1690602001909291908035906020019092919050505061110e565b005b3480156103dd57600080fd5b50610420600480360360208110156103f457600080fd5b81019080803573ffffffffffffffffffffffffffffffffffffffff169060200190929190505050611184565b60405180821515815260200191505060405180910390f35b34801561044457600080fd5b506104916004803603604081101561045b57600080fd5b81019080803573ffffffffffffffffffffffffffffffffffffffff1690602001909291908035906020019092919050505061118b565b6040518082815260200191505060405180910390f35b3480156104b357600080fd5b50610520600480360360608110156104ca57600080fd5b81019080803573ffffffffffffffffffffffffffffffffffffffff169060200190929190803573ffffffffffffffffffffffffffffffffffffffff169060200190929190803590602001909291905050506111e6565b005b34801561052e57600080fd5b5061055b6004803603602081101561054557600080fd5b8101908080359060200190929190505050611206565b604051808781526020018681526020018060200185600281111561057b57fe5b81526020018473ffffffffffffffffffffffffffffffffffffffff1681526020018373ffffffffffffffffffffffffffffffffffffffff168152602001828103825286818151815260200191508051906020019080838360005b838110156105f05780820151818401526020810190506105d5565b50505050905090810190601f16801561061d5780820380516001836020036101000a031916815260200191505b5097505050505050505060405180910390f35b34801561063c57600080fd5b506106696004803603602081101561065357600080fd5b8101908080359060200190929190505050611327565b6040518082815260200191505060405180910390f35b34801561068b57600080fd5b506106d8600480360360408110156106a257600080fd5b81019080803573ffffffffffffffffffffffffffffffffffffffff1690602001909291908035906020019092919050505061134a565b005b3480156106e657600080fd5b506106ef6117fd565b604051808373ffffffffffffffffffffffffffffffffffffffff1681526020018281526020019250505060405180910390f35b34801561072e57600080fd5b5061075b6004803603602081101561074557600080fd5b8101908080359060200190929190505050611880565b604051808273ffffffffffffffffffffffffffffffffffffffff16815260200191505060405180910390f35b34801561079357600080fd5b5061079c6118b7565b6040518080602001828103825283818151815260200191508051906020019080838360005b838110156107dc5780820151818401526020810190506107c1565b50505050905090810190601f1680156108095780820380516001836020036101000a031916815260200191505b509250505060405180910390f35b34801561082357600080fd5b506108666004803603602081101561083a57600080fd5b81019080803573ffffffffffffffffffffffffffffffffffffffff169060200190929190505050611959565b6040518082815260200191505060405180910390f35b34801561088857600080fd5b506108cb6004803603602081101561089f57600080fd5b81019080803573ffffffffffffffffffffffffffffffffffffffff169060200190929190505050611a2e565b005b3480156108d957600080fd5b5061099d600480360360408110156108f057600080fd5b81019080803590602001909291908035906020019064010000000081111561091757600080fd5b82018360208201111561092957600080fd5b8035906020019184600183028401116401000000008311171561094b57600080fd5b91908080601f016020809104026020016040519081016040528093929190818152602001838380828437600081840152601f19601f820116905080830192505050505050509192919290505050611ade565b005b3480156109ab57600080fd5b506109b4611db2565b6040518080602001828103825283818151815260200191508051906020019080838360005b838110156109f45780820151818401526020810190506109d9565b50505050905090810190601f168015610a215780820380516001836020036101000a031916815260200191505b509250505060405180910390f35b610a5b60048036036020811015610a4557600080fd5b8101908080359060200190929190505050611e54565b005b348015610a6957600080fd5b50610ab860048036036040811015610a8057600080fd5b81019080803573ffffffffffffffffffffffffffffffffffffffff1690602001909291908035151590602001909291905050506125f1565b005b348015610ac657600080fd5b50610bca60048036036080811015610add57600080fd5b81019080803573ffffffffffffffffffffffffffffffffffffffff169060200190929190803573ffffffffffffffffffffffffffffffffffffffff1690602001909291908035906020019092919080359060200190640100000000811115610b4457600080fd5b820183602082011115610b5657600080fd5b80359060200191846001830284011164010000000083111715610b7857600080fd5b91908080601f016020809104026020016040519081016040528093929190818152602001838380828437600081840152601f19601f8201169050808301925050505050505091929192905050506127a7565b005b348015610bd857600080fd5b50610c0560048036036020811015610bef57600080fd5b810190808035906020019092919050505061281f565b6040518080602001828103825283818151815260200191508051906020019080838360005b83811015610c45578082015181840152602081019050610c2a565b50505050905090810190601f168015610c725780820380516001836020036101000a031916815260200191505b509250505060405180910390f35b348015610c8c57600080fd5b50610cef60048036036040811015610ca357600080fd5b81019080803573ffffffffffffffffffffffffffffffffffffffff169060200190929190803573ffffffffffffffffffffffffffffffffffffffff169060200190929190505050612af0565b60405180821515815260200191505060405180910390f35b348015610d1357600080fd5b50610d4060048036036020811015610d2a57600080fd5b8101908080359060200190929190505050612b84565b6040518087815260200186815260200180602001856002811115610d6057fe5b81526020018473ffffffffffffffffffffffffffffffffffffffff1681526020018373ffffffffffffffffffffffffffffffffffffffff168152602001828103825286818151815260200191508051906020019080838360005b83811015610dd5578082015181840152602081019050610dba565b50505050905090810190601f168015610e025780820380516001836020036101000a031916815260200191505b5097505050505050505060405180910390f35b6000806000837bffffffffffffffffffffffffffffffffffffffffffffffffffffffff19167bffffffffffffffffffffffffffffffffffffffffffffffffffffffff1916815260200190815260200160002060009054906101000a900460ff169050919050565b606060068054600181600116156101000203166002900480601f016020809104026020016040519081016040528092919081815260200182805460018160011615610100020316600290048015610f145780601f10610ee957610100808354040283529160200191610f14565b820191906000526020600020905b815481529060010190602001808311610ef757829003601f168201915b5050505050905090565b6000610f2982612cb2565b610f7e576040517f08c379a000000000000000000000000000000000000000000000000000000000815260040180806020018281038252602c815260200180614226602c913960400191505060405180910390fd5b6004600083815260200190815260200160002060009054906101000a900473ffffffffffffffffffffffffffffffffffffffff169050919050565b6000610fc482611880565b90508073ffffffffffffffffffffffffffffffffffffffff168373ffffffffffffffffffffffffffffffffffffffff16141561104b576040517f08c379a00000000000000000000000000000000000000000000000000000000081526004018080602001828103825260218152602001806142aa6021913960400191505060405180910390fd5b8073ffffffffffffffffffffffffffffffffffffffff1661106a612ccf565b73ffffffffffffffffffffffffffffffffffffffff161480611099575061109881611093612ccf565b612af0565b5b6110ee576040517f08c379a00000000000000000000000000000000000000000000000000000000081526004018080602001828103825260388152602001806141796038913960400191505060405180910390fd5b6110f88383612cd7565b505050565b60006111096002612d90565b905090565b61111f611119612ccf565b82612da5565b611174576040517f08c379a00000000000000000000000000000000000000000000000000000000081526004018080602001828103825260318152602001806142cb6031913960400191505060405180910390fd5b61117f838383612e99565b505050565b6000919050565b60006111de82600160008673ffffffffffffffffffffffffffffffffffffffff1673ffffffffffffffffffffffffffffffffffffffff1681526020019081526020016000206130dc90919063ffffffff16565b905092915050565b611201838383604051806020016040528060008152506127a7565b505050565b600c602052806000526040600020600091509050806000015490806001015490806002018054600181600116156101000203166002900480601f0160208091040260200160405190810160405280929190818152602001828054600181600116156101000203166002900480156112be5780601f10611293576101008083540402835291602001916112be565b820191906000526020600020905b8154815290600101906020018083116112a157829003601f168201915b5050505050908060030160009054906101000a900460ff16908060030160019054906101000a900473ffffffffffffffffffffffffffffffffffffffff16908060040160009054906101000a900473ffffffffffffffffffffffffffffffffffffffff16905086565b60008061133e8360026130f690919063ffffffff16565b50905080915050919050565b8061135481611880565b73ffffffffffffffffffffffffffffffffffffffff163373ffffffffffffffffffffffffffffffffffffffff16146113f4576040517f08c379a00000000000000000000000000000000000000000000000000000000081526004018080602001828103825260158152602001807f4e6f206f776e6572206f662074686520546f6b656e000000000000000000000081525060200191505060405180910390fd5b6000826113ff613fa4565b600c60008381526020019081526020016000206040518060c00160405290816000820154815260200160018201548152602001600282018054600181600116156101000203166002900480601f0160208091040260200160405190810160405280929190818152602001828054600181600116156101000203166002900480156114ca5780601f1061149f576101008083540402835291602001916114ca565b820191906000526020600020905b8154815290600101906020018083116114ad57829003601f168201915b505050505081526020016003820160009054906101000a900460ff1660028111156114f157fe5b60028111156114fc57fe5b81526020016003820160019054906101000a900473ffffffffffffffffffffffffffffffffffffffff1673ffffffffffffffffffffffffffffffffffffffff1673ffffffffffffffffffffffffffffffffffffffff1681526020016004820160009054906101000a900473ffffffffffffffffffffffffffffffffffffffff1673ffffffffffffffffffffffffffffffffffffffff1673ffffffffffffffffffffffffffffffffffffffff168152505090508260028111156115ba57fe5b816060015160028111156115ca57fe5b146115d457600080fd5b6115dc613fa4565b600c60008781526020019081526020016000206040518060c00160405290816000820154815260200160018201548152602001600282018054600181600116156101000203166002900480601f0160208091040260200160405190810160405280929190818152602001828054600181600116156101000203166002900480156116a75780601f1061167c576101008083540402835291602001916116a7565b820191906000526020600020905b81548152906001019060200180831161168a57829003601f168201915b505050505081526020016003820160009054906101000a900460ff1660028111156116ce57fe5b60028111156116d957fe5b81526020016003820160019054906101000a900473ffffffffffffffffffffffffffffffffffffffff1673ffffffffffffffffffffffffffffffffffffffff1673ffffffffffffffffffffffffffffffffffffffff1681526020016004820160009054906101000a900473ffffffffffffffffffffffffffffffffffffffff1673ffffffffffffffffffffffffffffffffffffffff1673ffffffffffffffffffffffffffffffffffffffff168152505090506117958787610fb9565b858773ffffffffffffffffffffffffffffffffffffffff168260a0015173ffffffffffffffffffffffffffffffffffffffff167f8c5be1e5ebec7d5bd14f71427d1e84f3dd0314c0f7b2291e5b200ac8c7c3b92560405160405180910390a450505050505050565b6000806000600b8054905090506000814233600a54604051602001808481526020018373ffffffffffffffffffffffffffffffffffffffff1660601b815260140182815260200193505050506040516020818303038152906040528051906020012060001c8161186957fe5b06905061187581611880565b819350935050509091565b60006118b0826040518060600160405280602981526020016141db6029913960026131229092919063ffffffff16565b9050919050565b606060098054600181600116156101000203166002900480601f01602080910402602001604051908101604052809291908181526020018280546001816001161561010002031660029004801561194f5780601f106119245761010080835404028352916020019161194f565b820191906000526020600020905b81548152906001019060200180831161193257829003601f168201915b5050505050905090565b60008073ffffffffffffffffffffffffffffffffffffffff168273ffffffffffffffffffffffffffffffffffffffff1614156119e0576040517f08c379a000000000000000000000000000000000000000000000000000000000815260040180806020018281038252602a8152602001806141b1602a913960400191505060405180910390fd5b611a27600160008473ffffffffffffffffffffffffffffffffffffffff1673ffffffffffffffffffffffffffffffffffffffff168152602001908152602001600020613141565b9050919050565b600073ffffffffffffffffffffffffffffffffffffffff168173ffffffffffffffffffffffffffffffffffffffff161415611a6857600080fd5b611a738160016125f1565b8073ffffffffffffffffffffffffffffffffffffffff163373ffffffffffffffffffffffffffffffffffffffff167f17307eab39ab6107e8899845ad3d59bd9653f200f220920489ca2b5937696c31600160405180821515815260200191505060405180910390a350565b611ae6613fa4565b6040518060c001604052806000815260200184815260200183815260200160006002811115611b1157fe5b81526020013373ffffffffffffffffffffffffffffffffffffffff1681526020013373ffffffffffffffffffffffffffffffffffffffff168152509050600b81908060018154018082558091505060019003906000526020600020906005020160009091909190915060008201518160000155602082015181600101556040820151816002019080519060200190611baa929190614011565b5060608201518160030160006101000a81548160ff02191690836002811115611bcf57fe5b021790555060808201518160030160016101000a81548173ffffffffffffffffffffffffffffffffffffffff021916908373ffffffffffffffffffffffffffffffffffffffff16021790555060a08201518160040160006101000a81548173ffffffffffffffffffffffffffffffffffffffff021916908373ffffffffffffffffffffffffffffffffffffffff160217905550505060006001600b80549050039050611c7b3382613156565b6000611c87338361118b565b905080600b8281548110611c9757fe5b90600052602060002090600502016000018190555082600c600084815260200190815260200160002060008201518160000155602082015181600101556040820151816002019080519060200190611cf0929190614011565b5060608201518160030160006101000a81548160ff02191690836002811115611d1557fe5b021790555060808201518160030160016101000a81548173ffffffffffffffffffffffffffffffffffffffff021916908373ffffffffffffffffffffffffffffffffffffffff16021790555060a08201518160040160006101000a81548173ffffffffffffffffffffffffffffffffffffffff021916908373ffffffffffffffffffffffffffffffffffffffff1602179055509050505050505050565b606060078054600181600116156101000203166002900480601f016020809104026020016040519081016040528092919081815260200182805460018160011615610100020316600290048015611e4a5780601f10611e1f57610100808354040283529160200191611e4a565b820191906000526020600020905b815481529060010190602001808311611e2d57829003601f168201915b5050505050905090565b600081611e5f613fa4565b600c60008381526020019081526020016000206040518060c00160405290816000820154815260200160018201548152602001600282018054600181600116156101000203166002900480601f016020809104026020016040519081016040528092919081815260200182805460018160011615610100020316600290048015611f2a5780601f10611eff57610100808354040283529160200191611f2a565b820191906000526020600020905b815481529060010190602001808311611f0d57829003601f168201915b505050505081526020016003820160009054906101000a900460ff166002811115611f5157fe5b6002811115611f5c57fe5b81526020016003820160019054906101000a900473ffffffffffffffffffffffffffffffffffffffff1673ffffffffffffffffffffffffffffffffffffffff1673ffffffffffffffffffffffffffffffffffffffff1681526020016004820160009054906101000a900473ffffffffffffffffffffffffffffffffffffffff1673ffffffffffffffffffffffffffffffffffffffff1673ffffffffffffffffffffffffffffffffffffffff1681525050905082600281111561201a57fe5b8160600151600281111561202a57fe5b1461203457600080fd5b61203d84613174565b6120af576040517f08c379a00000000000000000000000000000000000000000000000000000000081526004018080602001828103825260208152602001807f5469636b65744c6f74746572793a206e6f6e6578697374616e7420746f6b656e81525060200191505060405180910390fd5b6120b7613fa4565b600c60008681526020019081526020016000206040518060c00160405290816000820154815260200160018201548152602001600282018054600181600116156101000203166002900480601f0160208091040260200160405190810160405280929190818152602001828054600181600116156101000203166002900480156121825780601f1061215757610100808354040283529160200191612182565b820191906000526020600020905b81548152906001019060200180831161216557829003601f168201915b505050505081526020016003820160009054906101000a900460ff1660028111156121a957fe5b60028111156121b457fe5b81526020016003820160019054906101000a900473ffffffffffffffffffffffffffffffffffffffff1673ffffffffffffffffffffffffffffffffffffffff1673ffffffffffffffffffffffffffffffffffffffff1681526020016004820160009054906101000a900473ffffffffffffffffffffffffffffffffffffffff1673ffffffffffffffffffffffffffffffffffffffff1673ffffffffffffffffffffffffffffffffffffffff168152505090506000816000015190503373ffffffffffffffffffffffffffffffffffffffff1661228f87610f1e565b73ffffffffffffffffffffffffffffffffffffffff1614612318576040517f08c379a00000000000000000000000000000000000000000000000000000000081526004018080602001828103825260168152602001807f596f757220617265206e6f7420746865206f776e65720000000000000000000081525060200191505060405180910390fd5b8160200151341015612392576040517f08c379a000000000000000000000000000000000000000000000000000000000815260040180806020018281038252601b8152602001807f42616c616e6365206c657373207468616e20746865207072696365000000000081525060200191505060405180910390fd5b600073ffffffffffffffffffffffffffffffffffffffff163373ffffffffffffffffffffffffffffffffffffffff161415612435576040517f08c379a000000000000000000000000000000000000000000000000000000000815260040180806020018281038252600e8152602001807f41646472657320696e76616c696400000000000000000000000000000000000081525060200191505060405180910390fd5b816020015134111561248f573373ffffffffffffffffffffffffffffffffffffffff166108fc836020015134039081150290604051600060405180830381858888f1935050505015801561248d573d6000803e3d6000fd5b505b8160a0015173ffffffffffffffffffffffffffffffffffffffff166108fc83602001519081150290604051600060405180830381858888f193505050501580156124dd573d6000803e3d6000fd5b506124ed8260a00151338861110e565b853373ffffffffffffffffffffffffffffffffffffffff168360a0015173ffffffffffffffffffffffffffffffffffffffff167fddf252ad1be2c89b69c2b068fc378daa952ba7f163c4a11628f55a4df523b3ef60405160405180910390a433600b828154811061255a57fe5b906000526020600020906005020160040160006101000a81548173ffffffffffffffffffffffffffffffffffffffff021916908373ffffffffffffffffffffffffffffffffffffffff1602179055506001600b82815481106125b857fe5b906000526020600020906005020160030160006101000a81548160ff021916908360028111156125e457fe5b0217905550505050505050565b6125f9612ccf565b73ffffffffffffffffffffffffffffffffffffffff168273ffffffffffffffffffffffffffffffffffffffff16141561269a576040517f08c379a00000000000000000000000000000000000000000000000000000000081526004018080602001828103825260198152602001807f4552433732313a20617070726f766520746f2063616c6c65720000000000000081525060200191505060405180910390fd5b80600560006126a7612ccf565b73ffffffffffffffffffffffffffffffffffffffff1673ffffffffffffffffffffffffffffffffffffffff16815260200190815260200160002060008473ffffffffffffffffffffffffffffffffffffffff1673ffffffffffffffffffffffffffffffffffffffff16815260200190815260200160002060006101000a81548160ff0219169083151502179055508173ffffffffffffffffffffffffffffffffffffffff16612754612ccf565b73ffffffffffffffffffffffffffffffffffffffff167f17307eab39ab6107e8899845ad3d59bd9653f200f220920489ca2b5937696c318360405180821515815260200191505060405180910390a35050565b6127b86127b2612ccf565b83612da5565b61280d576040517f08c379a00000000000000000000000000000000000000000000000000000000081526004018080602001828103825260318152602001806142cb6031913960400191505060405180910390fd5b61281984848484613197565b50505050565b606061282a82612cb2565b61287f576040517f08c379a000000000000000000000000000000000000000000000000000000000815260040180806020018281038252602f81526020018061427b602f913960400191505060405180910390fd5b6060600860008481526020019081526020016000208054600181600116156101000203166002900480601f0160208091040260200160405190810160405280929190818152602001828054600181600116156101000203166002900480156129285780601f106128fd57610100808354040283529160200191612928565b820191906000526020600020905b81548152906001019060200180831161290b57829003601f168201915b5050505050905060606129396118b7565b905060008151141561294f578192505050612aeb565b600082511115612a205780826040516020018083805190602001908083835b60208310612991578051825260208201915060208101905060208303925061296e565b6001836020036101000a03801982511681845116808217855250505050505090500182805190602001908083835b602083106129e257805182526020820191506020810190506020830392506129bf565b6001836020036101000a0380198251168184511680821785525050505050509050019250505060405160208183030381529060405292505050612aeb565b80612a2a85613209565b6040516020018083805190602001908083835b60208310612a605780518252602082019150602081019050602083039250612a3d565b6001836020036101000a03801982511681845116808217855250505050505090500182805190602001908083835b60208310612ab15780518252602082019150602081019050602083039250612a8e565b6001836020036101000a03801982511681845116808217855250505050505090500192505050604051602081830303815290604052925050505b919050565b6000600560008473ffffffffffffffffffffffffffffffffffffffff1673ffffffffffffffffffffffffffffffffffffffff16815260200190815260200160002060008373ffffffffffffffffffffffffffffffffffffffff1673ffffffffffffffffffffffffffffffffffffffff16815260200190815260200160002060009054906101000a900460ff16905092915050565b600b8181548110612b9157fe5b9060005260206000209060050201600091509050806000015490806001015490806002018054600181600116156101000203166002900480601f016020809104026020016040519081016040528092919081815260200182805460018160011615610100020316600290048015612c495780601f10612c1e57610100808354040283529160200191612c49565b820191906000526020600020905b815481529060010190602001808311612c2c57829003601f168201915b5050505050908060030160009054906101000a900460ff16908060030160019054906101000a900473ffffffffffffffffffffffffffffffffffffffff16908060040160009054906101000a900473ffffffffffffffffffffffffffffffffffffffff16905086565b6000612cc882600261335090919063ffffffff16565b9050919050565b600033905090565b816004600083815260200190815260200160002060006101000a81548173ffffffffffffffffffffffffffffffffffffffff021916908373ffffffffffffffffffffffffffffffffffffffff160217905550808273ffffffffffffffffffffffffffffffffffffffff16612d4a83611880565b73ffffffffffffffffffffffffffffffffffffffff167f8c5be1e5ebec7d5bd14f71427d1e84f3dd0314c0f7b2291e5b200ac8c7c3b92560405160405180910390a45050565b6000612d9e8260000161336a565b9050919050565b6000612db082612cb2565b612e05576040517f08c379a000000000000000000000000000000000000000000000000000000000815260040180806020018281038252602c81526020018061414d602c913960400191505060405180910390fd5b6000612e1083611880565b90508073ffffffffffffffffffffffffffffffffffffffff168473ffffffffffffffffffffffffffffffffffffffff161480612e7f57508373ffffffffffffffffffffffffffffffffffffffff16612e6784610f1e565b73ffffffffffffffffffffffffffffffffffffffff16145b80612e905750612e8f8185612af0565b5b91505092915050565b8273ffffffffffffffffffffffffffffffffffffffff16612eb982611880565b73ffffffffffffffffffffffffffffffffffffffff1614612f25576040517f08c379a00000000000000000000000000000000000000000000000000000000081526004018080602001828103825260298152602001806142526029913960400191505060405180910390fd5b600073ffffffffffffffffffffffffffffffffffffffff168273ffffffffffffffffffffffffffffffffffffffff161415612fab576040517f08c379a00000000000000000000000000000000000000000000000000000000081526004018080602001828103825260248152602001806141036024913960400191505060405180910390fd5b612fb683838361337b565b612fc1600082612cd7565b61301281600160008673ffffffffffffffffffffffffffffffffffffffff1673ffffffffffffffffffffffffffffffffffffffff16815260200190815260200160002061338090919063ffffffff16565b5061306481600160008573ffffffffffffffffffffffffffffffffffffffff1673ffffffffffffffffffffffffffffffffffffffff16815260200190815260200160002061339a90919063ffffffff16565b5061307b818360026133b49092919063ffffffff16565b50808273ffffffffffffffffffffffffffffffffffffffff168473ffffffffffffffffffffffffffffffffffffffff167fddf252ad1be2c89b69c2b068fc378daa952ba7f163c4a11628f55a4df523b3ef60405160405180910390a4505050565b60006130eb83600001836133e9565b60001c905092915050565b600080600080613109866000018661346c565b915091508160001c8160001c9350935050509250929050565b6000613135846000018460001b84613505565b60001c90509392505050565b600061314f826000016135fb565b9050919050565b61317082826040518060200160405280600081525061360c565b5050565b600080600c60008481526020019081526020016000206001015414159050919050565b6131a2848484612e99565b6131ae8484848461367d565b613203576040517f08c379a00000000000000000000000000000000000000000000000000000000081526004018080602001828103825260328152602001806140d16032913960400191505060405180910390fd5b50505050565b60606000821415613251576040518060400160405280600181526020017f3000000000000000000000000000000000000000000000000000000000000000815250905061334b565b600082905060005b6000821461327b578080600101915050600a828161327357fe5b049150613259565b60608167ffffffffffffffff8111801561329457600080fd5b506040519080825280601f01601f1916602001820160405280156132c75781602001600182028036833780820191505090505b50905060006001830390508593505b6000841461334357600a84816132e857fe5b0660300160f81b8282806001900393508151811061330257fe5b60200101907effffffffffffffffffffffffffffffffffffffffffffffffffffffffffffff1916908160001a905350600a848161333b57fe5b0493506132d6565b819450505050505b919050565b6000613362836000018360001b613896565b905092915050565b600081600001805490509050919050565b505050565b6000613392836000018360001b6138b9565b905092915050565b60006133ac836000018360001b6139a1565b905092915050565b60006133e0846000018460001b8473ffffffffffffffffffffffffffffffffffffffff1660001b613a11565b90509392505050565b60008183600001805490501161344a576040517f08c379a00000000000000000000000000000000000000000000000000000000081526004018080602001828103825260228152602001806140af6022913960400191505060405180910390fd5b82600001828154811061345957fe5b9060005260206000200154905092915050565b600080828460000180549050116134ce576040517f08c379a00000000000000000000000000000000000000000000000000000000081526004018080602001828103825260228152602001806142046022913960400191505060405180910390fd5b60008460000184815481106134df57fe5b906000526020600020906002020190508060000154816001015492509250509250929050565b600080846001016000858152602001908152602001600020549050600081141583906135cc576040517f08c379a00000000000000000000000000000000000000000000000000000000081526004018080602001828103825283818151815260200191508051906020019080838360005b83811015613591578082015181840152602081019050613576565b50505050905090810190601f1680156135be5780820380516001836020036101000a031916815260200191505b509250505060405180910390fd5b508460000160018203815481106135df57fe5b9060005260206000209060020201600101549150509392505050565b600081600001805490509050919050565b6136168383613aed565b613623600084848461367d565b613678576040517f08c379a00000000000000000000000000000000000000000000000000000000081526004018080602001828103825260328152602001806140d16032913960400191505060405180910390fd5b505050565b600061369e8473ffffffffffffffffffffffffffffffffffffffff16613ce1565b6136ab576001905061388e565b606061381563150b7a0260e01b6136c0612ccf565b888787604051602401808573ffffffffffffffffffffffffffffffffffffffff1681526020018473ffffffffffffffffffffffffffffffffffffffff16815260200183815260200180602001828103825283818151815260200191508051906020019080838360005b83811015613744578082015181840152602081019050613729565b50505050905090810190601f1680156137715780820380516001836020036101000a031916815260200191505b5095505050505050604051602081830303815290604052907bffffffffffffffffffffffffffffffffffffffffffffffffffffffff19166020820180517bffffffffffffffffffffffffffffffffffffffffffffffffffffffff83818316178352505050506040518060600160405280603281526020016140d1603291398773ffffffffffffffffffffffffffffffffffffffff16613cf49092919063ffffffff16565b9050600081806020019051602081101561382e57600080fd5b8101908080519060200190929190505050905063150b7a0260e01b7bffffffffffffffffffffffffffffffffffffffffffffffffffffffff1916817bffffffffffffffffffffffffffffffffffffffffffffffffffffffff191614925050505b949350505050565b600080836001016000848152602001908152602001600020541415905092915050565b60008083600101600084815260200190815260200160002054905060008114613995576000600182039050600060018660000180549050039050600086600001828154811061390457fe5b906000526020600020015490508087600001848154811061392157fe5b906000526020600020018190555060018301876001016000838152602001908152602001600020819055508660000180548061395957fe5b6001900381819060005260206000200160009055905586600101600087815260200190815260200160002060009055600194505050505061399b565b60009150505b92915050565b60006139ad8383613d0c565b613a06578260000182908060018154018082558091505060019003906000526020600020016000909190919091505582600001805490508360010160008481526020019081526020016000208190555060019050613a0b565b600090505b92915050565b6000808460010160008581526020019081526020016000205490506000811415613ab857846000016040518060400160405280868152602001858152509080600181540180825580915050600190039060005260206000209060020201600090919091909150600082015181600001556020820151816001015550508460000180549050856001016000868152602001908152602001600020819055506001915050613ae6565b82856000016001830381548110613acb57fe5b90600052602060002090600202016001018190555060009150505b9392505050565b600073ffffffffffffffffffffffffffffffffffffffff168273ffffffffffffffffffffffffffffffffffffffff161415613b90576040517f08c379a00000000000000000000000000000000000000000000000000000000081526004018080602001828103825260208152602001807f4552433732313a206d696e7420746f20746865207a65726f206164647265737381525060200191505060405180910390fd5b613b9981612cb2565b15613c0c576040517f08c379a000000000000000000000000000000000000000000000000000000000815260040180806020018281038252601c8152602001807f4552433732313a20746f6b656e20616c7265616479206d696e7465640000000081525060200191505060405180910390fd5b613c186000838361337b565b613c6981600160008573ffffffffffffffffffffffffffffffffffffffff1673ffffffffffffffffffffffffffffffffffffffff16815260200190815260200160002061339a90919063ffffffff16565b50613c80818360026133b49092919063ffffffff16565b50808273ffffffffffffffffffffffffffffffffffffffff16600073ffffffffffffffffffffffffffffffffffffffff167fddf252ad1be2c89b69c2b068fc378daa952ba7f163c4a11628f55a4df523b3ef60405160405180910390a45050565b600080823b905060008111915050919050565b6060613d038484600085613d2f565b90509392505050565b600080836001016000848152602001908152602001600020541415905092915050565b606082471015613d8a576040517f08c379a00000000000000000000000000000000000000000000000000000000081526004018080602001828103825260268152602001806141276026913960400191505060405180910390fd5b613d9385613ce1565b613e05576040517f08c379a000000000000000000000000000000000000000000000000000000000815260040180806020018281038252601d8152602001807f416464726573733a2063616c6c20746f206e6f6e2d636f6e747261637400000081525060200191505060405180910390fd5b600060608673ffffffffffffffffffffffffffffffffffffffff1685876040518082805190602001908083835b60208310613e555780518252602082019150602081019050602083039250613e32565b6001836020036101000a03801982511681845116808217855250505050505090500191505060006040518083038185875af1925050503d8060008114613eb7576040519150601f19603f3d011682016040523d82523d6000602084013e613ebc565b606091505b5091509150613ecc828286613ed8565b92505050949350505050565b60608315613ee857829050613f9d565b600083511115613efb5782518084602001fd5b816040517f08c379a00000000000000000000000000000000000000000000000000000000081526004018080602001828103825283818151815260200191508051906020019080838360005b83811015613f62578082015181840152602081019050613f47565b50505050905090810190601f168015613f8f5780820380516001836020036101000a031916815260200191505b509250505060405180910390fd5b9392505050565b6040518060c0016040528060008152602001600081526020016060815260200160006002811115613fd157fe5b8152602001600073ffffffffffffffffffffffffffffffffffffffff168152602001600073ffffffffffffffffffffffffffffffffffffffff1681525090565b828054600181600116156101000203166002900490600052602060002090601f016020900481019282601f1061405257805160ff1916838001178555614080565b82800160010185558215614080579182015b8281111561407f578251825591602001919060010190614064565b5b50905061408d9190614091565b5090565b5b808211156140aa576000816000905550600101614092565b509056fe456e756d657261626c655365743a20696e646578206f7574206f6620626f756e64734552433732313a207472616e7366657220746f206e6f6e20455243373231526563656976657220696d706c656d656e7465724552433732313a207472616e7366657220746f20746865207a65726f2061646472657373416464726573733a20696e73756666696369656e742062616c616e636520666f722063616c6c4552433732313a206f70657261746f7220717565727920666f72206e6f6e6578697374656e7420746f6b656e4552433732313a20617070726f76652063616c6c6572206973206e6f74206f776e6572206e6f7220617070726f76656420666f7220616c6c4552433732313a2062616c616e636520717565727920666f7220746865207a65726f20616464726573734552433732313a206f776e657220717565727920666f72206e6f6e6578697374656e7420746f6b656e456e756d657261626c654d61703a20696e646578206f7574206f6620626f756e64734552433732313a20617070726f76656420717565727920666f72206e6f6e6578697374656e7420746f6b656e4552433732313a207472616e73666572206f6620746f6b656e2074686174206973206e6f74206f776e4552433732314d657461646174613a2055524920717565727920666f72206e6f6e6578697374656e7420746f6b656e4552433732313a20617070726f76616c20746f2063757272656e74206f776e65724552433732313a207472616e736665722063616c6c6572206973206e6f74206f776e6572206e6f7220617070726f766564a26469706673582212208d7d00e202b5f7d7fa0e19611d6d547923738736160f73453ee91aa3bfe778cd64736f6c634300060c0033",
  "immutableReferences": {},
  "source": "// SPDX-License-Identifier: MIT\r\n\r\npragma solidity >=0.5.0 <0.8.0;\r\n\r\n//import \"github.com/OpenZeppelin/openzeppelin-solidity/contracts/token/ERC721/ERC721.sol\";\r\n\r\nimport \"./contracts/token/ERC721/ERC721.sol\";\r\n\r\ncontract LotteryNFT is ERC721(\"LotteryNGF\", \"LNFT\"){\r\n    \r\n    enum ticketStatus {FOR_SALE, SOLD, DESTROY}\r\n    uint private randNonce = 0;\r\n    struct TicketLottery{\r\n        uint256 id;\r\n        uint256 price;\r\n        string date;\r\n        ticketStatus status;\r\n        address payable manager;\r\n        address payable owner;\r\n    }\r\n    \r\n    TicketLottery [] public ticketsLottery;\r\n    \r\n    mapping(uint256 => TicketLottery) public tokens;\r\n    \r\n    modifier validStatus(ticketStatus _status, uint256 _tokenId) {\r\n        TicketLottery memory ticketLottery = tokens[_tokenId];\r\n        require(ticketLottery.status == _status);\r\n        _;\r\n    }\r\n    \r\n    modifier onlyOwner(uint256 _tokenId){\r\n        require(msg.sender == (super.ownerOf(_tokenId)), \"No owner of the Token\");\r\n        _;\r\n    }\r\n   \r\n    function createTicketLottery(\r\n        uint256 _price,\r\n        string memory _date) public {\r\n        TicketLottery memory _ticketLottery = TicketLottery ({\r\n            id : 0,\r\n            price: _price,\r\n            date: _date,\r\n            status: ticketStatus.FOR_SALE, \r\n            manager:msg.sender,\r\n            owner:msg.sender\r\n        });\r\n        \r\n        ticketsLottery.push(_ticketLottery);\r\n        uint256 tokenId = ticketsLottery.length - 1;\r\n        _safeMint(msg.sender, tokenId);\r\n        uint _index = tokenOfOwnerByIndex(msg.sender, tokenId);\r\n        ticketsLottery[_index].id = _index;\r\n        tokens[tokenId]=_ticketLottery;\r\n     }\r\n     \r\n     function approveTransferToken(address _attendee, uint256 _tokenId) public onlyOwner(_tokenId) validStatus(ticketStatus.FOR_SALE, _tokenId){\r\n         TicketLottery memory consultingService= tokens[_tokenId];\r\n         super.approve(_attendee, _tokenId);\r\n         emit Approval(consultingService.owner, _attendee, _tokenId);\r\n     }\r\n     \r\n     function approvalForAll(address _attendee) public{\r\n         require(_attendee != address(0x0));\r\n         super.setApprovalForAll(_attendee, true);\r\n         emit ApprovalForAll(msg.sender, _attendee, true);\r\n     }\r\n     \r\n     function validateIsApprovedForAll(address _attendee) public returns(bool){\r\n         \r\n     }\r\n     \r\n     function existsToken(uint256 _tokenId) internal view returns(bool) {\r\n        return (!(tokens[_tokenId].price == 0));\r\n     }\r\n    \r\n     function buyTicketLottery(uint256 _tokenId) payable public validStatus(ticketStatus.FOR_SALE, _tokenId)\r\n     {\r\n            require(existsToken(_tokenId),\"TicketLottery: nonexistant token\");\r\n            TicketLottery memory ticketLottery= tokens[_tokenId];\r\n            uint256 index = ticketLottery.id;\r\n            require(super.getApproved(_tokenId) == msg.sender, \"Your are not the owner\");\r\n            require(msg.value >= ticketLottery.price, \"Balance less than the price\");\r\n            require(msg.sender != address(0), \"Addres invalid\");\r\n            if(msg.value > ticketLottery.price){\r\n                msg.sender.transfer(msg.value - ticketLottery.price);\r\n            }\r\n            ticketLottery.owner.transfer(ticketLottery.price);\r\n            super.transferFrom(ticketLottery.owner, msg.sender, _tokenId);\r\n            emit Transfer(ticketLottery.owner, msg.sender, _tokenId);\r\n            ticketsLottery[index].owner =msg.sender;\r\n            ticketsLottery[index].status = ticketStatus.SOLD;\r\n     }\r\n     \r\n     function pickWinner() public view returns(address, uint256){\r\n         uint numTickets = ticketsLottery.length;\r\n         uint256 tokenWinner = uint(keccak256(abi.encodePacked(block.timestamp, msg.sender, randNonce))) % numTickets; \r\n         return (ownerOf(tokenWinner), tokenWinner);\r\n     }\r\n     \r\n     \r\n}",
  "sourcePath": "C:/xampp/htdocs/sc/semesterII/ERC721Lottery/contracts/LotteryNFT.sol",
  "compiler": {
    "name": "solc",
    "version": "0.6.12+commit.27d51765.Emscripten.clang"
  },
  "schemaVersion": "3.3.3",
  "updatedAt": "2021-01-31T01:52:01.672Z",
  "networkType": "ethereum",
  "devdoc": {
    "kind": "dev",
    "methods": {
      "approve(address,uint256)": {
        "details": "See {IERC721-approve}."
      },
      "balanceOf(address)": {
        "details": "See {IERC721-balanceOf}."
      },
      "baseURI()": {
        "details": "Returns the base URI set via {_setBaseURI}. This will be automatically added as a prefix in {tokenURI} to each token's URI, or to the token ID if no specific URI is set for that token ID."
      },
      "getApproved(uint256)": {
        "details": "See {IERC721-getApproved}."
      },
      "isApprovedForAll(address,address)": {
        "details": "See {IERC721-isApprovedForAll}."
      },
      "name()": {
        "details": "See {IERC721Metadata-name}."
      },
      "ownerOf(uint256)": {
        "details": "See {IERC721-ownerOf}."
      },
      "safeTransferFrom(address,address,uint256)": {
        "details": "See {IERC721-safeTransferFrom}."
      },
      "safeTransferFrom(address,address,uint256,bytes)": {
        "details": "See {IERC721-safeTransferFrom}."
      },
      "setApprovalForAll(address,bool)": {
        "details": "See {IERC721-setApprovalForAll}."
      },
      "supportsInterface(bytes4)": {
        "details": "See {IERC165-supportsInterface}. Time complexity O(1), guaranteed to always use less than 30 000 gas."
      },
      "symbol()": {
        "details": "See {IERC721Metadata-symbol}."
      },
      "tokenByIndex(uint256)": {
        "details": "See {IERC721Enumerable-tokenByIndex}."
      },
      "tokenOfOwnerByIndex(address,uint256)": {
        "details": "See {IERC721Enumerable-tokenOfOwnerByIndex}."
      },
      "tokenURI(uint256)": {
        "details": "See {IERC721Metadata-tokenURI}."
      },
      "totalSupply()": {
        "details": "See {IERC721Enumerable-totalSupply}."
      },
      "transferFrom(address,address,uint256)": {
        "details": "See {IERC721-transferFrom}."
      }
    },
    "version": 1
  },
  "userdoc": {
    "kind": "user",
    "methods": {},
    "version": 1
  }
}